{
  "_format": "hh-sol-artifact-1",
  "contractName": "BlogXContract",
  "sourceName": "contracts/BlogXContract.sol",
  "abi": [
    {
      "anonymous": false,
      "inputs": [
        {
          "indexed": false,
          "internalType": "address",
          "name": "recipient",
          "type": "address"
        },
        {
          "indexed": false,
          "internalType": "uint256",
          "name": "blogId",
          "type": "uint256"
        }
      ],
      "name": "AddBlog",
      "type": "event"
    },
    {
      "anonymous": false,
      "inputs": [
        {
          "indexed": false,
          "internalType": "uint256",
          "name": "blogId",
          "type": "uint256"
        },
        {
          "indexed": false,
          "internalType": "bool",
          "name": "isDeleted",
          "type": "bool"
        }
      ],
      "name": "DeleteBlog",
      "type": "event"
    },
    {
      "inputs": [
        {
          "internalType": "string",
          "name": "blogText",
          "type": "string"
        },
        {
          "internalType": "bool",
          "name": "isDeleted",
          "type": "bool"
        }
      ],
      "name": "addBlog",
      "outputs": [],
      "stateMutability": "nonpayable",
      "type": "function"
    },
    {
      "inputs": [
        {
          "internalType": "uint256",
          "name": "blogId",
          "type": "uint256"
        },
        {
          "internalType": "bool",
          "name": "isDeleted",
          "type": "bool"
        }
      ],
      "name": "deleteBlog",
      "outputs": [],
      "stateMutability": "nonpayable",
      "type": "function"
    },
    {
      "inputs": [],
      "name": "getAllBlogs",
      "outputs": [
        {
          "components": [
            {
              "internalType": "uint256",
              "name": "id",
              "type": "uint256"
            },
            {
              "internalType": "address",
              "name": "username",
              "type": "address"
            },
            {
              "internalType": "string",
              "name": "blogText",
              "type": "string"
            },
            {
              "internalType": "bool",
              "name": "isDeleted",
              "type": "bool"
            }
          ],
          "internalType": "struct BlogXContract.Blog[]",
          "name": "",
          "type": "tuple[]"
        }
      ],
      "stateMutability": "view",
      "type": "function"
    },
    {
      "inputs": [],
      "name": "getMyBlogs",
      "outputs": [
        {
          "components": [
            {
              "internalType": "uint256",
              "name": "id",
              "type": "uint256"
            },
            {
              "internalType": "address",
              "name": "username",
              "type": "address"
            },
            {
              "internalType": "string",
              "name": "blogText",
              "type": "string"
            },
            {
              "internalType": "bool",
              "name": "isDeleted",
              "type": "bool"
            }
          ],
          "internalType": "struct BlogXContract.Blog[]",
          "name": "",
          "type": "tuple[]"
        }
      ],
      "stateMutability": "view",
      "type": "function"
    }
  ],
  "bytecode": "0x608060405234801561001057600080fd5b5061125b806100206000396000f3fe608060405234801561001057600080fd5b506004361061004c5760003560e01c80632a4c13c814610051578063a9b1a24a1461006f578063c4c747001461008b578063d9796573146100a9575b600080fd5b6100596100c5565b6040516100669190610bc3565b60405180910390f35b61008960048036038101906100849190610d5a565b610411565b005b610093610597565b6040516100a09190610bc3565b60405180910390f35b6100c360048036038101906100be9190610de2565b610878565b005b60606000808054905067ffffffffffffffff8111156100e7576100e6610c03565b5b60405190808252806020026020018201604052801561012057816020015b61010d610959565b8152602001906001900390816101055790505b5090506000805b600080549050811015610357573373ffffffffffffffffffffffffffffffffffffffff166001600083815260200190815260200160002060009054906101000a900473ffffffffffffffffffffffffffffffffffffffff1673ffffffffffffffffffffffffffffffffffffffff161480156101d8575060001515600082815481106101b5576101b4610e22565b5b906000526020600020906004020160030160009054906101000a900460ff161515145b1561034457600081815481106101f1576101f0610e22565b5b9060005260206000209060040201604051806080016040529081600082015481526020016001820160009054906101000a900473ffffffffffffffffffffffffffffffffffffffff1673ffffffffffffffffffffffffffffffffffffffff1673ffffffffffffffffffffffffffffffffffffffff16815260200160028201805461027a90610e80565b80601f01602080910402602001604051908101604052809291908181526020018280546102a690610e80565b80156102f35780601f106102c8576101008083540402835291602001916102f3565b820191906000526020600020905b8154815290600101906020018083116102d657829003601f168201915b505050505081526020016003820160009054906101000a900460ff16151515158152505083838151811061032a57610329610e22565b5b6020026020010181905250818061034090610ee0565b9250505b808061034f90610ee0565b915050610127565b5060008167ffffffffffffffff81111561037457610373610c03565b5b6040519080825280602002602001820160405280156103ad57816020015b61039a610959565b8152602001906001900390816103925790505b50905060005b82811015610407578381815181106103ce576103cd610e22565b5b60200260200101518282815181106103e9576103e8610e22565b5b602002602001018190525080806103ff90610ee0565b9150506103b3565b5080935050505090565b600080805490509050600060405180608001604052808381526020013373ffffffffffffffffffffffffffffffffffffffff16815260200185815260200184151581525090806001815401808255809150506001900390600052602060002090600402016000909190919091506000820151816000015560208201518160010160006101000a81548173ffffffffffffffffffffffffffffffffffffffff021916908373ffffffffffffffffffffffffffffffffffffffff16021790555060408201518160020190816104e491906110d4565b5060608201518160030160006101000a81548160ff0219169083151502179055505050336001600083815260200190815260200160002060006101000a81548173ffffffffffffffffffffffffffffffffffffffff021916908373ffffffffffffffffffffffffffffffffffffffff1602179055507feac9ab764eeaec3e82478b9cb449739e21cad2fcf755e28071c0c188eca92854338260405161058a9291906111c4565b60405180910390a1505050565b60606000808054905067ffffffffffffffff8111156105b9576105b8610c03565b5b6040519080825280602002602001820160405280156105f257816020015b6105df610959565b8152602001906001900390816105d75790505b5090506000805b6000805490508110156107be57600015156000828154811061061e5761061d610e22565b5b906000526020600020906004020160030160009054906101000a900460ff161515036107ab576000818154811061065857610657610e22565b5b9060005260206000209060040201604051806080016040529081600082015481526020016001820160009054906101000a900473ffffffffffffffffffffffffffffffffffffffff1673ffffffffffffffffffffffffffffffffffffffff1673ffffffffffffffffffffffffffffffffffffffff1681526020016002820180546106e190610e80565b80601f016020809104026020016040519081016040528092919081815260200182805461070d90610e80565b801561075a5780601f1061072f5761010080835404028352916020019161075a565b820191906000526020600020905b81548152906001019060200180831161073d57829003601f168201915b505050505081526020016003820160009054906101000a900460ff16151515158152505083838151811061079157610790610e22565b5b602002602001018190525081806107a790610ee0565b9250505b80806107b690610ee0565b9150506105f9565b5060008167ffffffffffffffff8111156107db576107da610c03565b5b60405190808252806020026020018201604052801561081457816020015b610801610959565b8152602001906001900390816107f95790505b50905060005b8281101561086e5783818151811061083557610834610e22565b5b60200260200101518282815181106108505761084f610e22565b5b6020026020010181905250808061086690610ee0565b91505061081a565b5080935050505090565b3373ffffffffffffffffffffffffffffffffffffffff166001600084815260200190815260200160002060009054906101000a900473ffffffffffffffffffffffffffffffffffffffff1673ffffffffffffffffffffffffffffffffffffffff16036109555780600083815481106108f3576108f2610e22565b5b906000526020600020906004020160030160006101000a81548160ff0219169083151502179055507f41c43d4c6c8150bd3643e6d06e2c29b3cec6ac99d99e5f8506c7915cbcff9d94828260405161094c9291906111fc565b60405180910390a15b5050565b604051806080016040528060008152602001600073ffffffffffffffffffffffffffffffffffffffff168152602001606081526020016000151581525090565b600081519050919050565b600082825260208201905092915050565b6000819050602082019050919050565b6000819050919050565b6109d8816109c5565b82525050565b600073ffffffffffffffffffffffffffffffffffffffff82169050919050565b6000610a09826109de565b9050919050565b610a19816109fe565b82525050565b600081519050919050565b600082825260208201905092915050565b60005b83811015610a59578082015181840152602081019050610a3e565b60008484015250505050565b6000601f19601f8301169050919050565b6000610a8182610a1f565b610a8b8185610a2a565b9350610a9b818560208601610a3b565b610aa481610a65565b840191505092915050565b60008115159050919050565b610ac481610aaf565b82525050565b6000608083016000830151610ae260008601826109cf565b506020830151610af56020860182610a10565b5060408301518482036040860152610b0d8282610a76565b9150506060830151610b226060860182610abb565b508091505092915050565b6000610b398383610aca565b905092915050565b6000602082019050919050565b6000610b5982610999565b610b6381856109a4565b935083602082028501610b75856109b5565b8060005b85811015610bb15784840389528151610b928582610b2d565b9450610b9d83610b41565b925060208a01995050600181019050610b79565b50829750879550505050505092915050565b60006020820190508181036000830152610bdd8184610b4e565b905092915050565b6000604051905090565b600080fd5b600080fd5b600080fd5b600080fd5b7f4e487b7100000000000000000000000000000000000000000000000000000000600052604160045260246000fd5b610c3b82610a65565b810181811067ffffffffffffffff82111715610c5a57610c59610c03565b5b80604052505050565b6000610c6d610be5565b9050610c798282610c32565b919050565b600067ffffffffffffffff821115610c9957610c98610c03565b5b610ca282610a65565b9050602081019050919050565b82818337600083830152505050565b6000610cd1610ccc84610c7e565b610c63565b905082815260208101848484011115610ced57610cec610bfe565b5b610cf8848285610caf565b509392505050565b600082601f830112610d1557610d14610bf9565b5b8135610d25848260208601610cbe565b91505092915050565b610d3781610aaf565b8114610d4257600080fd5b50565b600081359050610d5481610d2e565b92915050565b60008060408385031215610d7157610d70610bef565b5b600083013567ffffffffffffffff811115610d8f57610d8e610bf4565b5b610d9b85828601610d00565b9250506020610dac85828601610d45565b9150509250929050565b610dbf816109c5565b8114610dca57600080fd5b50565b600081359050610ddc81610db6565b92915050565b60008060408385031215610df957610df8610bef565b5b6000610e0785828601610dcd565b9250506020610e1885828601610d45565b9150509250929050565b7f4e487b7100000000000000000000000000000000000000000000000000000000600052603260045260246000fd5b7f4e487b7100000000000000000000000000000000000000000000000000000000600052602260045260246000fd5b60006002820490506001821680610e9857607f821691505b602082108103610eab57610eaa610e51565b5b50919050565b7f4e487b7100000000000000000000000000000000000000000000000000000000600052601160045260246000fd5b6000610eeb826109c5565b91507fffffffffffffffffffffffffffffffffffffffffffffffffffffffffffffffff8203610f1d57610f1c610eb1565b5b600182019050919050565b60008190508160005260206000209050919050565b60006020601f8301049050919050565b600082821b905092915050565b600060088302610f8a7fffffffffffffffffffffffffffffffffffffffffffffffffffffffffffffffff82610f4d565b610f948683610f4d565b95508019841693508086168417925050509392505050565b6000819050919050565b6000610fd1610fcc610fc7846109c5565b610fac565b6109c5565b9050919050565b6000819050919050565b610feb83610fb6565b610fff610ff782610fd8565b848454610f5a565b825550505050565b600090565b611014611007565b61101f818484610fe2565b505050565b5b818110156110435761103860008261100c565b600181019050611025565b5050565b601f8211156110885761105981610f28565b61106284610f3d565b81016020851015611071578190505b61108561107d85610f3d565b830182611024565b50505b505050565b600082821c905092915050565b60006110ab6000198460080261108d565b1980831691505092915050565b60006110c4838361109a565b9150826002028217905092915050565b6110dd82610a1f565b67ffffffffffffffff8111156110f6576110f5610c03565b5b6111008254610e80565b61110b828285611047565b600060209050601f83116001811461113e576000841561112c578287015190505b61113685826110b8565b86555061119e565b601f19841661114c86610f28565b60005b828110156111745784890151825560018201915060208501945060208101905061114f565b86831015611191578489015161118d601f89168261109a565b8355505b6001600288020188555050505b505050505050565b6111af816109fe565b82525050565b6111be816109c5565b82525050565b60006040820190506111d960008301856111a6565b6111e660208301846111b5565b9392505050565b6111f681610aaf565b82525050565b600060408201905061121160008301856111b5565b61121e60208301846111ed565b939250505056fea264697066735822122030db7d0298c1875c2b8b15769c83ad43f74d2a3358157db8b13b4ef604a91fad64736f6c63430008110033",
  "linkReferences": {},
  "deployedLinkReferences": {}
}